{
  "contractName": "BattleToken",
  "abi": [
    {
      "anonymous": false,
      "inputs": [
        {
          "indexed": true,
          "internalType": "address",
          "name": "previousOwner",
          "type": "address"
        },
        {
          "indexed": true,
          "internalType": "address",
          "name": "newOwner",
          "type": "address"
        }
      ],
      "name": "OwnershipTransferred",
      "type": "event"
    },
    {
      "inputs": [],
      "name": "PRICE",
      "outputs": [
        {
          "internalType": "uint256",
          "name": "",
          "type": "uint256"
        }
      ],
      "stateMutability": "view",
      "type": "function"
    },
    {
      "inputs": [],
      "name": "isOwner",
      "outputs": [
        {
          "internalType": "bool",
          "name": "",
          "type": "bool"
        }
      ],
      "stateMutability": "view",
      "type": "function"
    },
    {
      "inputs": [],
      "name": "owner",
      "outputs": [
        {
          "internalType": "address",
          "name": "",
          "type": "address"
        }
      ],
      "stateMutability": "view",
      "type": "function"
    },
    {
      "inputs": [],
      "name": "renounceOwnership",
      "outputs": [],
      "stateMutability": "nonpayable",
      "type": "function"
    },
    {
      "inputs": [
        {
          "internalType": "address",
          "name": "",
          "type": "address"
        }
      ],
      "name": "tokensUser",
      "outputs": [
        {
          "internalType": "uint256",
          "name": "",
          "type": "uint256"
        }
      ],
      "stateMutability": "view",
      "type": "function"
    },
    {
      "inputs": [
        {
          "internalType": "address",
          "name": "newOwner",
          "type": "address"
        }
      ],
      "name": "transferOwnership",
      "outputs": [],
      "stateMutability": "nonpayable",
      "type": "function"
    },
    {
      "inputs": [],
      "name": "buyToken",
      "outputs": [],
      "stateMutability": "payable",
      "type": "function"
    },
    {
      "inputs": [],
      "name": "useToken",
      "outputs": [],
      "stateMutability": "nonpayable",
      "type": "function"
    }
  ],
  "bytecode": "0x608060405234801561001057600080fd5b50336000806101000a81548173ffffffffffffffffffffffffffffffffffffffff021916908373ffffffffffffffffffffffffffffffffffffffff16021790555060008054906101000a900473ffffffffffffffffffffffffffffffffffffffff1673ffffffffffffffffffffffffffffffffffffffff16600073ffffffffffffffffffffffffffffffffffffffff167f8be0079c531659141344cd1fd0a4f28419497f9722a3daafe3b4186f6b6457e060405160405180910390a3610786806100db6000396000f3fe60806040526004361061007b5760003560e01c8063a48217191161004e578063a482171914610118578063abe77d4514610122578063f2fde38b1461015f578063f8824518146101885761007b565b8063715018a6146100805780638d859f3e146100975780638da5cb5b146100c25780638f32d59b146100ed575b600080fd5b34801561008c57600080fd5b5061009561019f565b005b3480156100a357600080fd5b506100ac61026e565b6040516100b99190610528565b60405180910390f35b3480156100ce57600080fd5b506100d7610273565b6040516100e49190610584565b60405180910390f35b3480156100f957600080fd5b5061010261029c565b60405161010f91906105ba565b60405180910390f35b6101206102f3565b005b34801561012e57600080fd5b5061014960048036038101906101449190610606565b61038d565b6040516101569190610528565b60405180910390f35b34801561016b57600080fd5b5061018660048036038101906101819190610606565b6103a5565b005b34801561019457600080fd5b5061019d6103c2565b005b6101a761029c565b6101b057600080fd5b600073ffffffffffffffffffffffffffffffffffffffff1660008054906101000a900473ffffffffffffffffffffffffffffffffffffffff1673ffffffffffffffffffffffffffffffffffffffff167f8be0079c531659141344cd1fd0a4f28419497f9722a3daafe3b4186f6b6457e060405160405180910390a360008060006101000a81548173ffffffffffffffffffffffffffffffffffffffff021916908373ffffffffffffffffffffffffffffffffffffffff160217905550565b600181565b60008060009054906101000a900473ffffffffffffffffffffffffffffffffffffffff16905090565b60008060009054906101000a900473ffffffffffffffffffffffffffffffffffffffff1673ffffffffffffffffffffffffffffffffffffffff163373ffffffffffffffffffffffffffffffffffffffff1614905090565b60013414610336576040517f08c379a000000000000000000000000000000000000000000000000000000000815260040161032d90610690565b60405180910390fd5b600160003073ffffffffffffffffffffffffffffffffffffffff1673ffffffffffffffffffffffffffffffffffffffff1681526020019081526020016000206000815480929190610386906106df565b9190505550565b60016020528060005260406000206000915090505481565b6103ad61029c565b6103b657600080fd5b6103bf81610419565b50565b600160003073ffffffffffffffffffffffffffffffffffffffff1673ffffffffffffffffffffffffffffffffffffffff168152602001908152602001600020600081548092919061041290610727565b9190505550565b600073ffffffffffffffffffffffffffffffffffffffff168173ffffffffffffffffffffffffffffffffffffffff160361045257600080fd5b8073ffffffffffffffffffffffffffffffffffffffff1660008054906101000a900473ffffffffffffffffffffffffffffffffffffffff1673ffffffffffffffffffffffffffffffffffffffff167f8be0079c531659141344cd1fd0a4f28419497f9722a3daafe3b4186f6b6457e060405160405180910390a3806000806101000a81548173ffffffffffffffffffffffffffffffffffffffff021916908373ffffffffffffffffffffffffffffffffffffffff16021790555050565b6000819050919050565b6105228161050f565b82525050565b600060208201905061053d6000830184610519565b92915050565b600073ffffffffffffffffffffffffffffffffffffffff82169050919050565b600061056e82610543565b9050919050565b61057e81610563565b82525050565b60006020820190506105996000830184610575565b92915050565b60008115159050919050565b6105b48161059f565b82525050565b60006020820190506105cf60008301846105ab565b92915050565b600080fd5b6105e381610563565b81146105ee57600080fd5b50565b600081359050610600816105da565b92915050565b60006020828403121561061c5761061b6105d5565b5b600061062a848285016105f1565b91505092915050565b600082825260208201905092915050565b7f496e636f727265637420616d6f756e74206f66205054542073656e742e000000600082015250565b600061067a601d83610633565b915061068582610644565b602082019050919050565b600060208201905081810360008301526106a98161066d565b9050919050565b7f4e487b7100000000000000000000000000000000000000000000000000000000600052601160045260246000fd5b60006106ea8261050f565b91507fffffffffffffffffffffffffffffffffffffffffffffffffffffffffffffffff820361071c5761071b6106b0565b5b600182019050919050565b60006107328261050f565b915060008203610745576107446106b0565b5b60018203905091905056fea2646970667358221220c4a1056df988d03b76a02b0892c4303b21215bfec0f2f8422d23d4a34210d7fc64736f6c63430008110033",
  "immutableReferences": {},
  "source": "// SPDX-License-Identifier: MIT\r\npragma solidity ^0.8.0;\r\n\r\n// Import ownable contract\r\nimport \"./ownable.sol\";\r\n\r\ncontract BattleToken is Ownable {\r\n    // Set the prize of a battle token\r\n    uint256 public constant PRICE = 1;\r\n\r\n    // Mapping to keep track of how many battle token a user has\r\n    mapping(address => uint) public tokensUser;\r\n\r\n    // Function to buy a battle token using person currency\r\n    function buyToken() external payable {\r\n        // Check if the correct amount of tokens was sent\r\n        require(msg.value == PRICE, \"Incorrect amount of PTT sent.\");\r\n\r\n        // Add a token to the amount of tokens the user has\r\n        tokensUser[address(this)]++;\r\n    }\r\n\r\n    // Function to use a battle token\r\n    function useToken() public {\r\n        tokensUser[address(this)]--;\r\n    }\r\n}\r\n",
  "sourcePath": "C:\\Users\\Netflow\\Documents\\Bachelor_Elektronica-ICT\\3de_jaar_malta\\Blockchain\\home_assignment\\contracts\\BattleToken.sol",
  "compiler": {
    "name": "solc",
    "version": "0.8.17+commit.8df45f5f.Emscripten.clang"
  },
  "schemaVersion": "3.4.16",
  "updatedAt": "2024-06-06T15:21:58.612Z",
  "devdoc": {
    "kind": "dev",
    "methods": {
      "isOwner()": {
        "returns": {
          "_0": "true if `msg.sender` is the owner of the contract."
        }
      },
      "owner()": {
        "returns": {
          "_0": "the address of the owner."
        }
      },
      "renounceOwnership()": {
        "details": "Allows the current owner to relinquish control of the contract."
      },
      "transferOwnership(address)": {
        "details": "Allows the current owner to transfer control of the contract to a newOwner.",
        "params": {
          "newOwner": "The address to transfer ownership to."
        }
      }
    },
    "version": 1
  },
  "userdoc": {
    "kind": "user",
    "methods": {
      "renounceOwnership()": {
        "notice": "Renouncing to ownership will leave the contract without an owner. It will not be possible to call the functions with the `onlyOwner` modifier anymore."
      }
    },
    "version": 1
  }
}